:100000000A308A00A02A0000FF00030E8301A1002D
:100010007F08A0000A08A7008A01A00E0408A20019
:100020007708A3007808A4007908A5007A08A6003C
:10003000831383120B1E1E288B182F28220884007E
:100040002308F7002408F8002508F9002608FA001C
:1000500027088A00210E8300FF0E7F0E09008A11F7
:100060003128AB0A0319AC0A2B0B3C28AC08031D42
:100070003C288F018E015F282B08023C031D5F285E
:10008000AC08031D5F2844280C1C4F284230F700A1
:10009000F70B482800000C10AE01AD015B280F08DB
:1000A000FA000E08F7000F087A02031D4F287708A0
:1000B000AD007A08AE002F11AC01AB012F14013056
:1000C000B000F8008B108A111E28713083168F0043
:1000D000B03087007830F800063883129200FA308A
:1000E000831692003530831290000B16831601138D
:1000F000C03083128B049F121F13003083169100AF
:100100001F169F161F1383129F171F148A15ED2A9F
:100110008E30F70003173D08F8003C08F900FA019B
:10012000F808031D9D287908F800F9010830F70246
:10013000F808031D9D28F701A5280310F81BA42823
:10014000F90DF80DF7039D28F813031308000317A2
:100150005B0803191829E3005F0803191829E3074E
:100160000318B9287F30E302031C18290319182942
:10017000BD288130E307031818296308F700F80148
:10018000F901FA015C08E700E7175D08E6005E0880
:10019000E5001830E300E401651CE6286208FA0770
:1001A000031CD828F90A031DD828F80A0319E417F4
:1001B0006108F907031CDF28F80A0319E41760082F
:1001C000DD00DD175D08F8070318E417E40DF80CEF
:1001D000F90CFA0CE70CE60CE50C0310E30BCB284A
:1001E0000130F70703181829F81BFD28E70DFA0D51
:1001F000F90DF80DF70303191829E71F0E29FA0A5C
:10020000031D0E29F90A031D0E29F80A031D0E29E4
:10021000F80CF90CFA0CF70A031918295C08E40029
:100220006008E406E41F1629F8171C29F8131C2996
:10023000F701F801F901FA01031308008030831C6B
:1002400024290317E00603130317E501E6015C0800
:10025000E4006008E4065B080319122AE300F700D3
:100260005F0803191B2AE3020319B729031C752928
:100270006008E900E9176108E8006208E700E601A4
:100280000310E90CE80CE70CE60CE30B3F29E41F34
:100290004C2965142F2A6510631065165E308400A2
:1002A0008317442A6512E41B5F29631C6A29E90C41
:1002B000E80CE70CE60CF70A03192A2A6A29E91B5D
:1002C0006D290310E60DE70DE80DE90DF70303199D
:1002D0002A2A5F296517D72965135C08E400E41F03
:1002E0007329E917232AE913232A5F08E300F7009B
:1002F0005B08E3025C08E900E9175D08E8005E08B6
:10030000E700E6010310E90CE80CE70CE60CE30B50
:100310008129E41F8E29E5142F2AE5106310E516C4
:10032000623084008317442AE512E41BA129631C70
:10033000AC29E90CE80CE70CE60CF70A03192A2AA9
:10034000AC29E91BAF290310E60DE70DE80DE90D17
:10035000F70303192A2AA129E517D729E51360080D
:10036000E400E41FB529E917232AE913232A6008CA
:10037000E900E9176108E8006208E700E41FC42902
:10038000E91365152F2A6511E60163105E308400BC
:100390008317442AE41BED295C08E400631CD72979
:1003A000E90CE80CE70CE60CF70A03192A2AE61F09
:1003B000E829E70A031DE829E80A031DE829E90AF4
:1003C000031DE829E90CE80CE70CF70A03192A2AAF
:1003D000651B6C29E51BAE290C2A8030E906E91F54
:1003E000F5292F2A6008E400022A5C08E400E908E5
:1003F000031D022AE808031D022AE708031D022A3A
:10040000F701232AE91B0C2A0310E60DE70DE80D7E
:10041000E90DF70B022A2A2AE41F102AE917232ADA
:10042000E913232A5F08F7006008E9006108E80083
:100430006208E700232A5B08F7005C08E9005D0812
:10044000E8005E08E7006908F8006808F900670836
:10045000FA00622AF701F801F901FA01622AE601BD
:10046000E709E809E909E609E60A031D3D2AE70A62
:10047000031D3D2AE80A0319E90A65184B29E51806
:100480008D296519C329F2290008E707031C4E2AA4
:10049000E80A031D4E2AE90A0319631484030008BD
:1004A000E807031C562AE90A0319631484030008A9
:1004B000801F803AE90703186314651A5229E51A68
:1004C0009429CA290313080003173C0803192A2B8F
:1004D000C800400803192A2BC802031C742A7F3065
:1004E000C80703182A2B7A2A8130C802031C2A2B3A
:1004F00003192A2B4808F700F801F901FA01C7018E
:100500003D08C600C6173E08C5003F08C4001930A4
:10051000C8004308C40203189D2A0130C50203180D
:100520009D2AC60203189D2AC70203189D2AC70ADE
:10053000C60AC50A4308C407CF2A4208C5020318E1
:10054000B82A0130C6020318B82AC7020318B82A0D
:10055000C70AC60A4208C5074308C407031CCF2AB6
:10056000C50A031DCF2AC60A031DCF2AC70ACF2AF0
:1005700041088038C6020318CE2A0130C70203188A
:10058000CE2AC70A41088038C6074208C507031C9F
:10059000AC2AC60A031DAC2AC70AAC2A7A14C80BB7
:1005A000D22ADD2A0310C40DC50DC60DC70D0310D8
:1005B000FA0DF90DF80DC90D892A491CE52A031019
:1005C000F80CF90CFA0CC90CE82AF70303192A2BCA
:1005D000C91B112B0310C40DC50DC60DC70D430853
:1005E000C4020318FD2A0130C5020318FD2AC60201
:1005F0000318FD2AC702031C202B4208C50203185A
:10060000082B0130C6020318082BC702031C202B3D
:1006100041088038C6020318112B0130C702031CA1
:10062000202BFA0A031D202BF90A031D202BF80AA0
:10063000031D202BF70A03192A2BF80CF90CFA0CCE
:100640003D08C8004108C806C81F282BF8172E2BE4
:10065000F8132E2BF701F801F901FA010313080032
:100660008E30F70003173C08F7023D08F9003E08FA
:10067000F800F917F7080319482B0310F908031DB0
:10068000442BF8080319482BF90CF80CF70B3D2BF9
:10069000BD1F4F2BF809F909F80A0319F90A0313CA
:1006A000080003175808DF005C08DF06DF1F5D2B1A
:1006B00003110310D81B0314902B5808DF005B08AC
:1006C000E0005708E00203196B2BDF1F902B030893
:1006D000013A8300902B5C08E0005808E0020319FF
:1006E000772BDF1F902B0308013A8300902B5D08C6
:1006F000E0005908E0020319832BDF1F902B030849
:10070000013A8300902B5E08E0005A08E0020319CA
:100710008F2BDF1F902B0308013A8300902B0310CF
:10072000031308000317B201B1014830B00085304F
:10073000AF00B601B501B401B301B701BB01BA0105
:10074000B901B80101300313CA004A08403C031C38
:10075000C82C4A0803178D0083168C130C148312BF
:100760000C080313CD004D082F3C0318152C4D0821
:10077000393C031C152C30304D020317BD01BC0061
:10078000031388207A080317B6007908B5007808A3
:10079000B4007708B3003608DE003508DD00340801
:1007A000DC003308DB003208E2003108E1003008E9
:1007B000E0002F08DF000313A720831003173B0876
:1007C000DE003A08DD003908DC003808DB007A0872
:1007D000E2007908E1007808E0007708DF00031301
:1007E0001E217A080317BB007908BA007808B900FF
:1007F0007708B8003208BF003108BE003008BD00DD
:100800002F08BC00C301C2012030C1008230C000EB
:10081000031364227A080317B2007908B10078083C
:10082000B0007708AF00C52C03134D082C3C03190A
:100830001D2C4D08233C031D762C03173708083C5C
:10084000031D302C3B08BF003A08BE003908BD002C
:100850003808BC00031330237808C800642C031741
:100860003708093C031D422C3B08BF003A08BE0074
:100870003908BD003808BC00031330237808C900CC
:10088000642C031737080A3C031D4F2C0313D110A7
:100890000317381C4E2C0313D1140317632C370D88
:1008A000F700F70DFC30F7057708523E84008313FC
:1008B00038088000840A39088000840A3A088000D9
:1008C000840A3B08800003130317BB01BA01B90176
:1008D000B801B70AB201B1014830B0008530AF00AD
:1008E00003134D08233C0319C82CC62C4D082E3C7D
:1008F000031DC62C0317DA01D901D8017F30D700B8
:100900003208DE003108DD003008DC002F08DB0093
:100910000313512303188E2C031DBC2C031732081C
:10092000DE003108DD003008DC002F08DB00E201CA
:10093000E1012030E0008230DF000313A72003171D
:100940003B08BF003A08BE003908BD003808BC00AB
:100950007A08C3007908C2007808C1007708C0008F
:10096000031364227A080317BB007908BA007808D9
:10097000B9007708B8000313CD300317B200CC30AC
:10098000B1004C30B0007B30AF000313CA0AA52B76
:10099000080033308400831700080319DC2C023070
:1009A000F800F701F70BD22CF80BD12C9730F70099
:1009B000F70BD82C800BCF2C080007140711031756
:1009C000B508031DE62C7030B707EA2C350BEA2C6E
:1009D000F030B707B901B801B908031D202D380858
:1009E0000F3C031C202DBA0137088039BB003B0D9A
:1009F000BA01BB0103183A143A18012D03138710EA
:100A000003173A1C062D0313871403170630F7004B
:100A1000F70B082D0000031387110630F700F70BC2
:100A20000F2D000087150630F700F70B152D00007D
:100A300003100317B60DB70DB80A0319B90AEC2C49
:100A40000313071507100630F700F70B252D0000DC
:100A500007140800031732080313BA0003173108FC
:100A60000313B900031730080313B80003172F0846
:100A70000313B70001300317B3000313C9243A0866
:100A80000317BF00031339080317BE000313380808
:100A90000317BD00031337080317BC0003133023EB
:100AA00079080317B4007808B3003408B600330897
:100AB000B500031349080317B700B708031D912DAC
:100AC0003608BD003508BC000313882083107A085F
:100AD0000317DE007908DD007808DC007708DB000A
:100AE00003135D080317E20003135C080317E1001A
:100AF00003135B080317E00003135A080317DF0012
:100B000003131E217A080317BF007908BE00780876
:100B1000BD007708BC00031330237908F62DF62DAD
:100B20000317370BA02D0310350DF900360DFA0011
:100B30007908F8007A08F9000313F62DF62D03174B
:100B40003708023C031DF72D8310031355080317C4
:100B5000DE00031354080317DD00031353080317C3
:100B6000DC00031352080317DB00031359080317B3
:100B7000E200031358080317E10003135708031793
:100B8000E000031356080317DF0003131E21770844
:100B90000317B8007808B9007908BA007A08BB00D2
:100BA0003608BD003508BC000313882083140317E2
:100BB0003B08DE003A08DD003908DC003808DB00BD
:100BC0007A08E2007908E1007808E0007708DF00A1
:100BD00003131E217A080317BF007908BE007808A6
:100BE000BD007708BC000313302379080317790888
:100BF000BD007808BC00031388207A08BE0079087D
:100C0000BD007808BC007708BB0002300317B300B2
:100C10000313C9243A080317BF0003133908031745
:100C2000BE00031338080317BD000313370803176A
:100C3000BC00C301C2014830C1008530C0000313AD
:100C400064220317DE01F030DD007F30DC008A30E3
:100C5000DB007A08E2007908E1007808E000770814
:100C6000DF000313A7207A08BA007908B9007808D2
:100C7000B8007708B7003E080317BF0003133D080C
:100C80000317BE0003133C080317BD0003133B0802
:100C90000317BC00C301C2014830C1008530C00049
:100CA000031364220317DE01F030DD007F30DC0027
:100CB0008A30DB007A08E2007908E1007808E00079
:100CC0007708DF000313A7207A08BE007908BD006B
:100CD0007808BC007708BB0002300317B300031389
:100CE000C9243A080317BF00031339080317BE00CD
:100CF000031338080317BD00031337080317BC009C
:100D00000313302379080317B4007808B300B50142
:100D10003408B7003308B6000313DD243E08031778
:100D2000BF0003133D080317BE0003133C0803175D
:100D3000BD0003133B080317BC00031330237908DD
:100D40000317B4007808B3000130B5003408B700C9
:100D50003308B6000313DD240130F80008008C1EB0
:100D6000AF2E1808A8001A08F800A81CB92E1812EF
:100D70001816080008300317B002031CCB2E3030C1
:100D8000840083170310800C00080319CB2EC92E92
:100D90000000800BC82E03138A15982B2D0DCF0051
:100DA0002E0DD000CF0DD00DFC30CF0583100317D2
:100DB000B2010F30B1004230B0004030AF00B60198
:100DC000B501031350080317B40003134F080317AA
:100DD000B3008318EE2E373084008317F701F80133
:100DE000F901FA01B701B801B901BA0136083504B1
:100DF0003404330403192C2F2030BB000310AF0D33
:100E0000B00DB10DB20DB70DB80DB90DBA0D360854
:100E10003A02031D152F35083902031D152F34081A
:100E20003802031D152F33083702031C262F330801
:100E3000B7023408031C340FB8023508031C350F01
:100E4000B9023608031C360FBA020314F70DF80D69
:100E5000F90DFA0DBB0BFE2E37088000840A380806
:100E60008000840A39088000840A3A0880007808E3
:100E70000313D0007708CF0001300317B30003132A
:100E8000C9246D08C2006C08C1006B08C0006A0864
:100E9000BF0050080317BD0003134F080317BC0021
:100EA0000313882042080317DE00031341080317C9
:100EB000DD00031340080317DC0003133F0803178A
:100EC000DB007A08E2007908E1007808E0007708A2
:100ED000DF000313A7207A08C2007908C100780850
:100EE000C0007708BF003F08F7004008F80041083D
:100EF000F9004208FA008A15122D0317B01B932F30
:100F00000F30F7002F0EF7050A30770203188B2FEA
:100F10003030F7078D2F3008F707770803130C1EC2
:100F20008F2F990003170F30AF050A302F020318D7
:100F30009B2F30309D2FB0133008AF072F080313BD
:0A0F40000C1EA02F99008A15C82F7F
:101000000030F8001F08E33978049F004230F700F1
:10101000F70B082800009F149F180C281E08FA00E0
:1010200083161E0883120317BC007A08BD008A11BC
:10103000031388208A157A08BA007908B90078085D
:10104000B8007708B70002300317B3008A11031302
:10105000C9248A153A080317BF0003133908031778
:10106000BE00031338080317BD0003133708031726
:10107000BC00C301C030C2007F30C1008830C00056
:101080008A11031364228A1577080317AF007808C2
:10109000B0007908B1007A08B200DE003108DD0046
:1010A0003008DC002F08DB00E201E1014830E000FD
:1010B0008530DF008A110313A7208A157A08BA0049
:1010C0007908B9007808B8007708B700023003172C
:1010D000B3008A110313C9248A153A080317DA00EA
:1010E000031339080317D900031338080317D8006E
:1010F000031337080317D700031355080317DE003F
:10110000031354080317DD00031353080317DC000F
:10111000031352080317DB008A11031351238A15A6
:10112000031C9A285508BA005408B9005308B8009F
:101130005208B70059080317DA00031358080317B9
:10114000D900031357080317D800031356080317D1
:10115000D70003133A080317DE00031339080317F7
:10116000DD00031338080317DC00031337080317E7
:10117000DB008A11031351238A15031CC728590861
:10118000BA005808B9005708B8005608B700370821
:10119000F7003808F8003908F9003A08FA000800A2
:1011A0000317CE01CD01CC01CB01D201D101D00179
:1011B000CF01D601D501D401D30183144208DE004A
:1011C0004108DD004008DC003F08DB004608E20083
:1011D0004508E1004408E0004308DF008A110313DA
:1011E0001E218A157A08F5007908F4007808F300C2
:1011F0007708F20075080317CE007408CD00730855
:10120000CC007208CB0083160313680883120317FF
:10121000DA0083160313670883120317D9008316B5
:101220000313660883120317D80083160313650897
:1012300083120317D700DE01DD01DC01DB018A1117
:10124000031351238A15031D532983108316640841
:1012500083120317DE008316031363088312031738
:10126000DD0083160313620883120317DC00831664
:101270000313610883120317DB007508E20074088A
:10128000E1007308E0007208DF008A1103131E21D9
:101290008A157A088316E4007908E3007808E200EA
:1012A0007708E1008312831475080317DE007408C1
:1012B000DD007308DC007208DB007E08E2007D08B8
:1012C000E1007C08E0007B08DF008A1103131E2187
:1012D0008A157A080317D2007908D1007808D0005F
:1012E0007708CF007508FE007408FD007308FC0045
:1012F0007208FB003608DE003508DD003408DC002B
:101300003308DB004E08E2004D08E1004C08E00025
:101310004B08DF008A110313A7208A1577080317EB
:10132000D7007808D8007908D9007A08DA003A0896
:10133000DE003908DD003808DC003708DB008316E2
:101340000313640883120317E20083160313630870
:1013500083120317E1008316031362088312031735
:10136000E00083160313610883120317DF008A115C
:101370000313A7208A15831003175A08DE005908A3
:10138000DD005808DC005708DB007A08E200790825
:10139000E1007808E0007708DF008A1103131E21BE
:1013A0008A1577080317D7007808D8007908D9007C
:1013B0007A08DA003E08DE003D08DD003C08DC006B
:1013C0003B08DB005208E2005108E1005008E00051
:1013D0004F08DF008A110313A7208A158310031713
:1013E0005A08DE005908DD005808DC005708DB0009
:1013F0007A08E2007908E1007808E0007708DF0069
:101400008A1103131E218A15831003174A08DE0070
:101410004908DD004808DC004708DB007A08E200E4
:101420007908E1007808E0007708DF008A110313EB
:101430001E218A157A080317D6007908D500780886
:10144000D4007708D3005608DA005508D9005408AC
:10145000D8005308D700031355080317DE00031301
:1014600054080317DD00031353080317DC000313AC
:1014700052080317DB008A11031351238A15031C3A
:10148000592A55080317D600031354080317D5002B
:10149000031353080317D400031352080317D30090
:1014A00083160313E801E701E6017F30E500932A84
:1014B000831259080317DA00031358080317D900D9
:1014C000031357080317D800031356080317D70050
:1014D0005608DE005508DD005408DC005308DB0028
:1014E0008A11031351238A15031C8E2A59080317E6
:1014F000D600031358080317D50003135708031722
:10150000D400031356080317D30083160313E8010E
:10151000E701E6017F30E500932A83128316E80194
:10152000E701E601E501831203175308F7005408A9
:10153000F8005508F9005608FA0003138A15792FA8
:10154000840183131F308305713083168F000F08C9
:101550008312A8010C3083169900A23098009030B5
:1015600083129800AF10B001B401B301B201B10110
:10157000B501AF112F12AF12B6012F13C201C10175
:10158000C001BF01C601C501C401C301D001CF0123
:10159000D110F501F401F301F201FE01FD01FC019E
:1015A000FB018316E401E301E201E101E801E70147
:1015B000E601E50183120317870188019C019D0163
:1015C0009E0103139F121F13003083169100970191
:1015D00007309C008A11831265288A15CB018A1175
:1015E00092238A15CD01AF13AC01AB01CC01511090
:1015F0008316E901ED01EC01EB01EA01EE01EF01D7
:1016000083120317A001A101A301A201A4012510C7
:101610008316031385118312851555080317B2002D
:10162000031354080317B100031353080317B00042
:10163000031352080317AF008A1103132A258A15D2
:101640008316EE018312871A152C55080317B20072
:10165000031354080317B100031353080317B00012
:10166000031352080317AF008A1103132A258A15A2
:101670008316EF018312871A152C00308C1A013063
:10168000003A03190C2C8A11AF268A157808CE006F
:101690004E08243C031D662BCA014A08403C031C2B
:1016A000662B4A0803178D0083168C130C148312C3
:1016B0000C080313CD004230F700F70B5D2B000040
:1016C0004D080C1E612B9900CA0A4D2B4E082A3C6E
:1016D000031D062CCC0183166F083F3C031CA02B76
:1016E00083128C1C782B01308316EF0783128C1029
:1016F0008C1E9E2BA0304C07840083130317B2016D
:101700000408B1003210831B32148A110313AF2670
:101710008A15031731088400831332188317780859
:1017200080000230AF00F830B0008A110313BA2EE7
:101730008A150317AF0B932B0313CC0A6B2B83165D
:10174000A03083124C078400831380010B08F7003C
:101750008B1303178D012A308C0083168C130C1504
:1017600055308D00AA308D008C148C18B52B0C11BF
:101770007708831203138B0401300317B3008A1117
:101780000313C9248A150130CA00CD014A08403C20
:10179000031CFC2B01304A02A03E84008313000886
:1017A000CD000B08F7008B134A0803178D000313B5
:1017B0004D0803178C0083168C130C1555308D00C3
:1017C000AA308D008C148C18E32B0C11770883122F
:1017D00003138B048430F700F70BEC2BEF2B000086
:1017E000CA0A4D08233C031DFB2B01308316E90078
:1017F000EE018312FC2BC62B01300317B3008A11B4
:101800000313C9248A158A1192238A158316690B3A
:101810000D2CEE018312152C83160C30F700F70BFC
:101820000F2C122C00003A2B831200308C1A01303E
:10183000003A0319382C01300317B3008A1103133F
:10184000C9248A158A11AF268A157808AA002A08A1
:10185000093C0318382C2A088C3C031C382C2A0815
:10186000A900AF140317A301A2011A30A1000313AA
:101870008C1C582C8316EE0A83120317A00AA20AA6
:101880000319A30AA10A03138C100317251C83163E
:1018900003136E08013C0318562C8312AF1E522C02
:1018A0008316562CAF16B001582C831683128C1059
:1018B00083166E08053C0318772C8312B008031DAD
:1018C000722C8316EE018312C201C101C001BF0157
:1018D000C601C501C401C301B001AE01AD012F15A0
:1018E000AF13752C8316EE018312AF128316831289
:1018F00003172008013C03188C2C03132F1D822C86
:1019000003178C2C0317A001831603130613403012
:1019100083128606962C031703132F1D962C03178C
:10192000A00183160313061383120613031723085B
:10193000013C0318A72CFF3A031DA22C2208583C97
:101940000318A72C0313AF100317A301A20103135D
:10195000AF18B02CAF1BB02C480847020318B82CA6
:10196000AF18BB2CAF1BBB2C480847020318BB2C7D
:101970004808C700FE2CAF18C62CAF1FC62C48085D
:101980004702031CC62C4808C700FE2CAF18D22CF7
:10199000AF1FD22C480847020318D22C0317251476
:1019A000FD2C0313AF1CDD2CAF1BDD2C29084702D7
:1019B000031CDD2C2908C700FE2CAF1CE82CAF1B34
:1019C000E82C290847020318E82C2908C700FE2C38
:1019D000AF1CF32CAF1FF32C29084702031CF32C78
:1019E0002908C700FE2CAF1CFE2CAF1FFE2C2908B7
:1019F00047020318FE2C0317251403130317251C95
:101A0000042D0313511403170313511C0C2D8316BB
:101A1000051183120515102D83160511831205116A
:101A20008A11CE2E8A157A08B4007908B300780896
:101A3000B2007708B100033047070317BD01BC00AF
:101A40008A11031388208A157A080317DA007908A7
:101A5000D9007808D8007708D70003133408031793
:101A6000DE00031333080317DD00031332080317E6
:101A7000DC00031331080317DB008A110313512321
:101A80008A150318452D031D592D2F1A4A2D2F167F
:101A90002430B500CC0A4C08053C0318582D031718
:101AA000251C542D0313582D01300313D106CC01EE
:101AB0005E2D2F1E5E2D2F125110AF15AF1BAA2EBB
:101AC0008316E401E301E201E101E801E701E60137
:101AD000E501861383128613033047020317BD0105
:101AE000BC008A11031388208A157A080317DA00CC
:101AF0007908D9007808D8007708D700031334088C
:101B00000317DE00031333080317DD000313320845
:101B10000317DC00031331080317DB008A110313DA
:101B200051238A150318962D031DD72D0330470224
:101B30000317BD01BC008A11031388208A157A0897
:101B40000317DA007908D9007808D8007708D70099
:101B5000031334080317DE00031333080317DD00F3
:101B6000031332080317DC00031331080317DB00EB
:101B70008A11031351238A150318C22D0319C22D8C
:101B80002F1FD62DCC0A55080317B2000313540893
:101B90000317B100031353080317B00003135208CF
:101BA0000317AF008A1103132A258A15DD2D511062
:101BB00083160511831205112F134C08053C0318D9
:101BC000EC2D0317251CE62D0313EC2D0313AF1981
:101BD000EC2D0130D106CC010317A901A801A70102
:101BE000A601031300207A080317A9007908A800AA
:101BF0007808A7007708A6000330031347020317ED
:101C0000BD01BC008A11031388208A15340803170C
:101C1000DA00031333080317D9000313320803173C
:101C2000D800031331080317D7007A08DE007908BB
:101C3000DD007808DC007708DB008A1103135123EC
:101C40008A15031C342E2F1B342E03172908B200CB
:101C50002808B1002708B0002608AF008A11031336
:101C60002A258A15AF11B501033047020317BD01BC
:101C7000BC008A11031388208A157A080317DA003A
:101C80007908D9007808D8007708D70003133408FA
:101C90000317DE00031333080317DD0003133208B4
:101CA0000317DC00031331080317DB008A11031349
:101CB00051238A1503185E2E031D602E2F1F8A2EB6
:101CC000033047070317BD01BC008A1103138820A6
:101CD0008A1534080317DA00031333080317D900F1
:101CE000031332080317D800031331080317D70072
:101CF0007A08DE007908DD007808DC007708DB0070
:101D00008A11031351238A150318882E031DA92E47
:101D10002F1FA92E55080317DA00031354080317C1
:101D2000D900031353080317D800031352080317ED
:101D3000D7002908DE002808DD002708DC00260877
:101D4000DB008A11031351238A150318A82E0319E7
:101D5000AF17AF2FAF1FAF2F8316861383128617CF
:101D60002F173508233C031CCC2E4C08053C0318C8
:101D7000C42E0317251CBE2E0313C42E0313AF1944
:101D8000C42E0130D106CC013508233C031DCA2ED8
:101D9000AF155110B50ACC0A0317AD01AC01AB0168
:101DA000AA01031300207A080317AD007908AC00DC
:101DB0007808AB007708AA008310031355080317AF
:101DC000DE00031354080317DD0003135308031741
:101DD000DC00031352080317DB00E201E101E0011C
:101DE0008030DF008A1103131E218A157A08031739
:101DF000DA007908D9007808D8007708D7002D08CC
:101E0000DE002C08DD002B08DC002A08DB008A112C
:101E1000031351238A15031C9D2F2F1C9C2F2F1059
:101E20000317BD01031347080317BC008A110313EE
:101E300088208A1577080317AF007808B000790862
:101E4000B1007A08B200031361080317B600031348
:101E500060080317B50003135F080317B4000313EA
:101E60005E080317B300031365080317BA000313D2
:101E700064080317B900031363080317B8000313BA
:101E800062080317B700031369080317BE000313A2
:101E900068080317BD00031367080317BC0003138A
:101EA00066080317BB003208C2003108C1003008C1
:101EB000C0002F08BF00031334080317C600031324
:101EC00033080317C500031332080317C4000313B4
:101ED00031080317C3007108CA007008C900031352
:101EE0006F080317C80003136E080317C700031316
:101EF000D0287A088316ED007908EC007808EB000A
:101F00007708EA006D0883120317B20083160313E3
:101F10006C0883120317B100831603136B08831236
:101F20000317B000831603136A0883120317AF0068
:101F30008A1103132A258A15AF2F8316861383125D
:101F40008613AF138316E401E301E201E101E80126
:101F5000E701E601E50183120317251003130317B8
:101F60002108323C0318CE2FA1010130AF003030E0
:101F700003130C1EB92F99000317AF0BB72F0313D0
:101F800047080317AF003730B0008A1103137D2FC5
:101F90008A150A300C1ECA2F99000317AE012E08AD
:101FA000A93C031CDA2F5430F700F70BD52FD82F9C
:101FB000AE0ACF2F0130B3008A110313C9248A154A
:041FC000232B63006C
:02400E00E43F8D
:00000001FF
;PIC16F913
;CRC=0444  CREATED="01-May-23 14:02"
